{"abi":[{"type":"constructor","inputs":[{"name":"_paymentToken","type":"address","internalType":"address"},{"name":"_ticketNFT","type":"address","internalType":"address"}],"stateMutability":"nonpayable"},{"type":"function","name":"LISTING_FEE","inputs":[],"outputs":[{"name":"","type":"uint256","internalType":"uint256"}],"stateMutability":"view"},{"type":"function","name":"PLATFORM_ADDRESS","inputs":[],"outputs":[{"name":"","type":"address","internalType":"address"}],"stateMutability":"view"},{"type":"function","name":"addTicketTier","inputs":[{"name":"eventId","type":"uint256","internalType":"uint256"},{"name":"tierName","type":"string","internalType":"string"},{"name":"pricePerPerson","type":"uint256","internalType":"uint256"},{"name":"maxSupply","type":"uint256","internalType":"uint256"}],"outputs":[],"stateMutability":"nonpayable"},{"type":"function","name":"buyTicket","inputs":[{"name":"eventId","type":"uint256","internalType":"uint256"},{"name":"tierId","type":"uint256","internalType":"uint256"},{"name":"attendeeCount","type":"uint256","internalType":"uint256"},{"name":"ticketMetadataURI","type":"string","internalType":"string"}],"outputs":[{"name":"","type":"uint256","internalType":"uint256"}],"stateMutability":"nonpayable"},{"type":"function","name":"cancelEvent","inputs":[{"name":"eventId","type":"uint256","internalType":"uint256"}],"outputs":[],"stateMutability":"nonpayable"},{"type":"function","name":"createEvent","inputs":[{"name":"title","type":"string","internalType":"string"},{"name":"description","type":"string","internalType":"string"},{"name":"location","type":"string","internalType":"string"},{"name":"startDate","type":"uint256","internalType":"uint256"},{"name":"endDate","type":"uint256","internalType":"uint256"},{"name":"metadataURI","type":"string","internalType":"string"}],"outputs":[{"name":"","type":"uint256","internalType":"uint256"}],"stateMutability":"nonpayable"},{"type":"function","name":"eventTickets","inputs":[{"name":"","type":"uint256","internalType":"uint256"},{"name":"","type":"uint256","internalType":"uint256"}],"outputs":[{"name":"","type":"uint256","internalType":"uint256"}],"stateMutability":"view"},{"type":"function","name":"events","inputs":[{"name":"","type":"uint256","internalType":"uint256"}],"outputs":[{"name":"id","type":"uint256","internalType":"uint256"},{"name":"organizer","type":"address","internalType":"address"},{"name":"title","type":"string","internalType":"string"},{"name":"description","type":"string","internalType":"string"},{"name":"location","type":"string","internalType":"string"},{"name":"startDate","type":"uint256","internalType":"uint256"},{"name":"endDate","type":"uint256","internalType":"uint256"},{"name":"metadataURI","type":"string","internalType":"string"},{"name":"status","type":"uint8","internalType":"enum EventManager.EventStatus"},{"name":"tierCount","type":"uint256","internalType":"uint256"}],"stateMutability":"view"},{"type":"function","name":"getEvent","inputs":[{"name":"eventId","type":"uint256","internalType":"uint256"}],"outputs":[{"name":"id","type":"uint256","internalType":"uint256"},{"name":"organizer","type":"address","internalType":"address"},{"name":"title","type":"string","internalType":"string"},{"name":"description","type":"string","internalType":"string"},{"name":"location","type":"string","internalType":"string"},{"name":"startDate","type":"uint256","internalType":"uint256"},{"name":"endDate","type":"uint256","internalType":"uint256"},{"name":"metadataURI","type":"string","internalType":"string"},{"name":"status","type":"uint8","internalType":"enum EventManager.EventStatus"},{"name":"tierCount","type":"uint256","internalType":"uint256"}],"stateMutability":"view"},{"type":"function","name":"getTicketInfo","inputs":[{"name":"ticketId","type":"uint256","internalType":"uint256"}],"outputs":[{"name":"","type":"tuple","internalType":"struct EventManager.TicketInfo","components":[{"name":"id","type":"uint256","internalType":"uint256"},{"name":"eventId","type":"uint256","internalType":"uint256"},{"name":"tierId","type":"uint256","internalType":"uint256"},{"name":"purchaser","type":"address","internalType":"address"},{"name":"attendeeCount","type":"uint256","internalType":"uint256"},{"name":"totalAmountPaid","type":"uint256","internalType":"uint256"},{"name":"purchaseTimestamp","type":"uint256","internalType":"uint256"},{"name":"used","type":"bool","internalType":"bool"},{"name":"refunded","type":"bool","internalType":"bool"},{"name":"eventStatusAtPurchase","type":"uint8","internalType":"enum EventManager.EventStatus"},{"name":"currentEventStatus","type":"uint8","internalType":"enum EventManager.EventStatus"},{"name":"valid","type":"bool","internalType":"bool"},{"name":"reason","type":"string","internalType":"string"}]}],"stateMutability":"view"},{"type":"function","name":"getTicketTier","inputs":[{"name":"eventId","type":"uint256","internalType":"uint256"},{"name":"tierId","type":"uint256","internalType":"uint256"}],"outputs":[{"name":"name","type":"string","internalType":"string"},{"name":"pricePerPerson","type":"uint256","internalType":"uint256"},{"name":"maxSupply","type":"uint256","internalType":"uint256"},{"name":"currentSupply","type":"uint256","internalType":"uint256"},{"name":"active","type":"bool","internalType":"bool"}],"stateMutability":"view"},{"type":"function","name":"getUserTickets","inputs":[{"name":"user","type":"address","internalType":"address"}],"outputs":[{"name":"","type":"uint256[]","internalType":"uint256[]"}],"stateMutability":"view"},{"type":"function","name":"owner","inputs":[],"outputs":[{"name":"","type":"address","internalType":"address"}],"stateMutability":"view"},{"type":"function","name":"pause","inputs":[],"outputs":[],"stateMutability":"nonpayable"},{"type":"function","name":"paused","inputs":[],"outputs":[{"name":"","type":"bool","internalType":"bool"}],"stateMutability":"view"},{"type":"function","name":"paymentToken","inputs":[],"outputs":[{"name":"","type":"address","internalType":"contract EvenntZToken"}],"stateMutability":"view"},{"type":"function","name":"refundTicket","inputs":[{"name":"ticketId","type":"uint256","internalType":"uint256"}],"outputs":[],"stateMutability":"nonpayable"},{"type":"function","name":"renounceOwnership","inputs":[],"outputs":[],"stateMutability":"nonpayable"},{"type":"function","name":"ticketNFT","inputs":[],"outputs":[{"name":"","type":"address","internalType":"contract EvenntZNFT"}],"stateMutability":"view"},{"type":"function","name":"tickets","inputs":[{"name":"","type":"uint256","internalType":"uint256"}],"outputs":[{"name":"id","type":"uint256","internalType":"uint256"},{"name":"eventId","type":"uint256","internalType":"uint256"},{"name":"tierId","type":"uint256","internalType":"uint256"},{"name":"purchaser","type":"address","internalType":"address"},{"name":"attendeeCount","type":"uint256","internalType":"uint256"},{"name":"totalAmountPaid","type":"uint256","internalType":"uint256"},{"name":"purchaseTimestamp","type":"uint256","internalType":"uint256"},{"name":"used","type":"bool","internalType":"bool"},{"name":"refunded","type":"bool","internalType":"bool"},{"name":"eventStatusAtPurchase","type":"uint8","internalType":"enum EventManager.EventStatus"}],"stateMutability":"view"},{"type":"function","name":"transferOwnership","inputs":[{"name":"newOwner","type":"address","internalType":"address"}],"outputs":[],"stateMutability":"nonpayable"},{"type":"function","name":"unpause","inputs":[],"outputs":[],"stateMutability":"nonpayable"},{"type":"function","name":"updateTicketTier","inputs":[{"name":"eventId","type":"uint256","internalType":"uint256"},{"name":"tierId","type":"uint256","internalType":"uint256"},{"name":"tierName","type":"string","internalType":"string"},{"name":"pricePerPerson","type":"uint256","internalType":"uint256"},{"name":"maxSupply","type":"uint256","internalType":"uint256"},{"name":"active","type":"bool","internalType":"bool"}],"outputs":[],"stateMutability":"nonpayable"},{"type":"function","name":"userTickets","inputs":[{"name":"","type":"address","internalType":"address"},{"name":"","type":"uint256","internalType":"uint256"}],"outputs":[{"name":"","type":"uint256","internalType":"uint256"}],"stateMutability":"view"},{"type":"function","name":"verifyAndUseTicket","inputs":[{"name":"ticketId","type":"uint256","internalType":"uint256"}],"outputs":[{"name":"","type":"bool","internalType":"bool"}],"stateMutability":"nonpayable"},{"type":"function","name":"verifyTicket","inputs":[{"name":"ticketId","type":"uint256","internalType":"uint256"}],"outputs":[{"name":"valid","type":"bool","internalType":"bool"},{"name":"reason","type":"string","internalType":"string"}],"stateMutability":"view"},{"type":"event","name":"EventCancelled","inputs":[{"name":"eventId","type":"uint256","indexed":true,"internalType":"uint256"},{"name":"organizer","type":"address","indexed":true,"internalType":"address"},{"name":"timestamp","type":"uint256","indexed":false,"internalType":"uint256"}],"anonymous":false},{"type":"event","name":"EventCreated","inputs":[{"name":"eventId","type":"uint256","indexed":true,"internalType":"uint256"},{"name":"organizer","type":"address","indexed":true,"internalType":"address"},{"name":"title","type":"string","indexed":false,"internalType":"string"},{"name":"startDate","type":"uint256","indexed":false,"internalType":"uint256"},{"name":"endDate","type":"uint256","indexed":false,"internalType":"uint256"}],"anonymous":false},{"type":"event","name":"OwnershipTransferred","inputs":[{"name":"previousOwner","type":"address","indexed":true,"internalType":"address"},{"name":"newOwner","type":"address","indexed":true,"internalType":"address"}],"anonymous":false},{"type":"event","name":"Paused","inputs":[{"name":"account","type":"address","indexed":false,"internalType":"address"}],"anonymous":false},{"type":"event","name":"TicketPurchased","inputs":[{"name":"ticketId","type":"uint256","indexed":true,"internalType":"uint256"},{"name":"eventId","type":"uint256","indexed":true,"internalType":"uint256"},{"name":"tierId","type":"uint256","indexed":true,"internalType":"uint256"},{"name":"purchaser","type":"address","indexed":false,"internalType":"address"},{"name":"attendeeCount","type":"uint256","indexed":false,"internalType":"uint256"},{"name":"totalAmount","type":"uint256","indexed":false,"internalType":"uint256"},{"name":"timestamp","type":"uint256","indexed":false,"internalType":"uint256"}],"anonymous":false},{"type":"event","name":"TicketRefunded","inputs":[{"name":"ticketId","type":"uint256","indexed":true,"internalType":"uint256"},{"name":"eventId","type":"uint256","indexed":true,"internalType":"uint256"},{"name":"purchaser","type":"address","indexed":true,"internalType":"address"},{"name":"amount","type":"uint256","indexed":false,"internalType":"uint256"}],"anonymous":false},{"type":"event","name":"TicketUsed","inputs":[{"name":"ticketId","type":"uint256","indexed":true,"internalType":"uint256"},{"name":"eventId","type":"uint256","indexed":true,"internalType":"uint256"},{"name":"organizer","type":"address","indexed":true,"internalType":"address"}],"anonymous":false},{"type":"event","name":"TierUpdated","inputs":[{"name":"eventId","type":"uint256","indexed":true,"internalType":"uint256"},{"name":"tierId","type":"uint256","indexed":true,"internalType":"uint256"},{"name":"name","type":"string","indexed":false,"internalType":"string"},{"name":"pricePerPerson","type":"uint256","indexed":false,"internalType":"uint256"},{"name":"maxSupply","type":"uint256","indexed":false,"internalType":"uint256"},{"name":"active","type":"bool","indexed":false,"internalType":"bool"}],"anonymous":false},{"type":"event","name":"Unpaused","inputs":[{"name":"account","type":"address","indexed":false,"internalType":"address"}],"anonymous":false},{"type":"error","name":"EnforcedPause","inputs":[]},{"type":"error","name":"ExpectedPause","inputs":[]},{"type":"error","name":"OwnableInvalidOwner","inputs":[{"name":"owner","type":"address","internalType":"address"}]},{"type":"error","name":"OwnableUnauthorizedAccount","inputs":[{"name":"account","type":"address","internalType":"address"}]},{"type":"error","name":"ReentrancyGuardReentrantCall","inputs":[]}],"bytecode":{"object":"0x60c060405234801561000f575f5ffd5b5060405161558638038061558683398181016040528101906100319190610255565b335f73ffffffffffffffffffffffffffffffffffffffff168173ffffffffffffffffffffffffffffffffffffffff16036100a2575f6040517f1e4fbdf700000000000000000000000000000000000000000000000000000000815260040161009991906102a2565b60405180910390fd5b6100b18161013660201b60201c565b50600180819055508173ffffffffffffffffffffffffffffffffffffffff1660808173ffffffffffffffffffffffffffffffffffffffff16815250508073ffffffffffffffffffffffffffffffffffffffff1660a08173ffffffffffffffffffffffffffffffffffffffff16815250505f6003819055505f60048190555050506102bb565b5f5f5f9054906101000a900473ffffffffffffffffffffffffffffffffffffffff169050815f5f6101000a81548173ffffffffffffffffffffffffffffffffffffffff021916908373ffffffffffffffffffffffffffffffffffffffff1602179055508173ffffffffffffffffffffffffffffffffffffffff168173ffffffffffffffffffffffffffffffffffffffff167f8be0079c531659141344cd1fd0a4f28419497f9722a3daafe3b4186f6b6457e060405160405180910390a35050565b5f5ffd5b5f73ffffffffffffffffffffffffffffffffffffffff82169050919050565b5f610224826101fb565b9050919050565b6102348161021a565b811461023e575f5ffd5b50565b5f8151905061024f8161022b565b92915050565b5f5f6040838503121561026b5761026a6101f7565b5b5f61027885828601610241565b925050602061028985828601610241565b9150509250929050565b61029c8161021a565b82525050565b5f6020820190506102b55f830184610293565b92915050565b60805160a05161526b61031b5f395f8181610e6c0152818161196f01528181611ce6015281816123f2015281816128ed01528181612eb40152612fde01525f818161088201528181610d6c015281816125e30152612d8e015261526b5ff3fe608060405234801561000f575f5ffd5b506004361061018c575f3560e01c80636d5e365e116100dc5780638da5cb5b11610095578063cf260baf1161006f578063cf260baf146104a2578063d54f6316146104d2578063f2fde38b14610502578063ff99a0631461051e5761018c565b80638da5cb5b14610448578063b393391b14610466578063bbc28489146104845761018c565b80636d5e365e1461039c578063715018a6146103cc57806375774100146103d6578063779cea77146103f25780638456cb5914610422578063852c33731461042c5761018c565b806350a6aba11161014957806354baba831161012357806354baba83146102f55780635c975abb146103115780636c0f11161461032f5780636d1884e0146103635761018c565b806350a6aba11461025b57806350b447121461028b578063543cb81f146102c45761018c565b80630484a22f146101905780630b791430146101c05780632b86ae38146101f95780633013ce29146102175780633f4ba83a146102355780633f69babd1461023f575b5f5ffd5b6101aa60048036038101906101a591906135db565b61054e565b6040516101b791906136c6565b60405180910390f35b6101da60048036038101906101d59190613710565b6105e1565b6040516101f09a9998979695949392919061383c565b60405180910390f35b610201610874565b60405161020e91906138f2565b60405180910390f35b61021f610880565b60405161022c9190613966565b60405180910390f35b61023d6108a4565b005b61025960048036038101906102549190613710565b6108b6565b005b61027560048036038101906102709190613aab565b610b6b565b60405161028291906138f2565b60405180910390f35b6102a560048036038101906102a09190613710565b611185565b6040516102bb9a99989796959493929190613b45565b60405180910390f35b6102de60048036038101906102d99190613710565b61121a565b6040516102ec929190613bdf565b60405180910390f35b61030f600480360381019061030a9190613c0d565b61122f565b005b610319611529565b6040516103269190613c8d565b60405180910390f35b61034960048036038101906103449190613ca6565b61153e565b60405161035a959493929190613ce4565b60405180910390f35b61037d60048036038101906103789190613710565b611682565b6040516103939a9998979695949392919061383c565b60405180910390f35b6103b660048036038101906103b19190613710565b611945565b6040516103c39190613c8d565b60405180910390f35b6103d4611caa565b005b6103f060048036038101906103eb9190613710565b611cbd565b005b61040c60048036038101906104079190613ca6565b612055565b60405161041991906138f2565b60405180910390f35b61042a612080565b005b61044660048036038101906104419190613d66565b612092565b005b6104506123c9565b60405161045d9190613e0b565b60405180910390f35b61046e6123f0565b60405161047b9190613e44565b60405180910390f35b61048c612414565b6040516104999190613e0b565b60405180910390f35b6104bc60048036038101906104b79190613e5d565b61242c565b6040516104c991906138f2565b60405180910390f35b6104ec60048036038101906104e79190613e9b565b612457565b6040516104f991906138f2565b60405180910390f35b61051c600480360381019061051791906135db565b612848565b005b61053860048036038101906105339190613710565b6128cc565b604051610545919061411f565b60405180910390f35b606060085f8373ffffffffffffffffffffffffffffffffffffffff1673ffffffffffffffffffffffffffffffffffffffff1681526020019081526020015f208054806020026020016040519081016040528092919081815260200182805480156105d557602002820191905f5260205f20905b8154815260200190600101908083116105c1575b50505050509050919050565b6005602052805f5260405f205f91509050805f015490806001015f9054906101000a900473ffffffffffffffffffffffffffffffffffffffff169080600201805461062b9061416c565b80601f01602080910402602001604051908101604052809291908181526020018280546106579061416c565b80156106a25780601f10610679576101008083540402835291602001916106a2565b820191905f5260205f20905b81548152906001019060200180831161068557829003601f168201915b5050505050908060030180546106b79061416c565b80601f01602080910402602001604051908101604052809291908181526020018280546106e39061416c565b801561072e5780601f106107055761010080835404028352916020019161072e565b820191905f5260205f20905b81548152906001019060200180831161071157829003601f168201915b5050505050908060040180546107439061416c565b80601f016020809104026020016040519081016040528092919081815260200182805461076f9061416c565b80156107ba5780601f10610791576101008083540402835291602001916107ba565b820191905f5260205f20905b81548152906001019060200180831161079d57829003601f168201915b5050505050908060050154908060060154908060070180546107db9061416c565b80601f01602080910402602001604051908101604052809291908181526020018280546108079061416c565b80156108525780601f1061082957610100808354040283529160200191610852565b820191905f5260205f20905b81548152906001019060200180831161083557829003601f168201915b505050505090806008015f9054906101000a900460ff169080600a015490508a565b670de0b6b3a764000081565b7f000000000000000000000000000000000000000000000000000000000000000081565b6108ac612b4a565b6108b4612bd1565b565b6108be612c32565b6108c6612c78565b5f60055f8381526020019081526020015f2090503373ffffffffffffffffffffffffffffffffffffffff16816001015f9054906101000a900473ffffffffffffffffffffffffffffffffffffffff1673ffffffffffffffffffffffffffffffffffffffff161461096b576040517f08c379a0000000000000000000000000000000000000000000000000000000008152600401610962906141e6565b60405180910390fd5b5f600381111561097e5761097d6137c9565b5b816008015f9054906101000a900460ff1660038111156109a1576109a06137c9565b5b146109e1576040517f08c379a00000000000000000000000000000000000000000000000000000000081526004016109d89061424e565b60405180910390fd5b6003816008015f6101000a81548160ff02191690836003811115610a0857610a076137c9565b5b02179055505f60075f8481526020019081526020015f20805480602002602001604051908101604052809291908181526020018280548015610a6757602002820191905f5260205f20905b815481526020019060010190808311610a53575b505050505090505f5f90505b8151811015610b0e575f60065f848481518110610a9357610a9261426c565b5b602002602001015181526020019081526020015f2090508060070160019054906101000a900460ff16158015610ad75750806007015f9054906101000a900460ff16155b15610b0057610aff838381518110610af257610af161426c565b5b6020026020010151612cb9565b5b508080600101915050610a73565b503373ffffffffffffffffffffffffffffffffffffffff16837fa128805e9787c02636444667a035d27eef98494621cd8204a10744b1dac5b6f442604051610b5691906138f2565b60405180910390a35050610b68612fb9565b50565b5f610b74612c32565b610b7c612c78565b5f83118015610b8c5750600a8311155b610bcb576040517f08c379a0000000000000000000000000000000000000000000000000000000008152600401610bc2906142e3565b60405180910390fd5b5f60055f8781526020019081526020015f2090505f6003811115610bf257610bf16137c9565b5b816008015f9054906101000a900460ff166003811115610c1557610c146137c9565b5b14610c55576040517f08c379a0000000000000000000000000000000000000000000000000000000008152600401610c4c9061424e565b60405180910390fd5b80600a01548510610c9b576040517f08c379a0000000000000000000000000000000000000000000000000000000008152600401610c929061434b565b60405180910390fd5b5f816009015f8781526020019081526020015f209050806004015f9054906101000a900460ff16610d01576040517f08c379a0000000000000000000000000000000000000000000000000000000008152600401610cf8906143b3565b60405180910390fd5b8060020154858260030154610d1691906143fe565b1115610d57576040517f08c379a0000000000000000000000000000000000000000000000000000000008152600401610d4e9061447b565b60405180910390fd5b5f858260010154610d689190614499565b90507f000000000000000000000000000000000000000000000000000000000000000073ffffffffffffffffffffffffffffffffffffffff166323b872dd33856001015f9054906101000a900473ffffffffffffffffffffffffffffffffffffffff16846040518463ffffffff1660e01b8152600401610dea939291906144da565b6020604051808303815f875af1158015610e06573d5f5f3e3d5ffd5b505050506040513d601f19601f82011682018060405250810190610e2a9190614523565b610e69576040517f08c379a0000000000000000000000000000000000000000000000000000000008152600401610e6090614598565b60405180910390fd5b5f7f000000000000000000000000000000000000000000000000000000000000000073ffffffffffffffffffffffffffffffffffffffff1663d204c45e33886040518363ffffffff1660e01b8152600401610ec59291906145b6565b6020604051808303815f875af1158015610ee1573d5f5f3e3d5ffd5b505050506040513d601f19601f82011682018060405250810190610f0591906145f8565b90506040518061014001604052808281526020018a81526020018981526020013373ffffffffffffffffffffffffffffffffffffffff1681526020018881526020018381526020014281526020015f151581526020015f151581526020015f6003811115610f7657610f756137c9565b5b81525060065f8381526020019081526020015f205f820151815f015560208201518160010155604082015181600201556060820151816003015f6101000a81548173ffffffffffffffffffffffffffffffffffffffff021916908373ffffffffffffffffffffffffffffffffffffffff1602179055506080820151816004015560a0820151816005015560c0820151816006015560e0820151816007015f6101000a81548160ff0219169083151502179055506101008201518160070160016101000a81548160ff0219169083151502179055506101208201518160070160026101000a81548160ff02191690836003811115611076576110756137c9565b5b021790555090505060075f8a81526020019081526020015f2081908060018154018082558091505060019003905f5260205f20015f909190919091505560085f3373ffffffffffffffffffffffffffffffffffffffff1673ffffffffffffffffffffffffffffffffffffffff1681526020019081526020015f2081908060018154018082558091505060019003905f5260205f20015f909190919091505586836003015f82825461112791906143fe565b925050819055508789827fbf288586515e40bb05123fb7d20a38a3a607536905a6c361fd378102c947f20c338b87426040516111669493929190614623565b60405180910390a48094505050505061117d612fb9565b949350505050565b6006602052805f5260405f205f91509050805f015490806001015490806002015490806003015f9054906101000a900473ffffffffffffffffffffffffffffffffffffffff1690806004015490806005015490806006015490806007015f9054906101000a900460ff16908060070160019054906101000a900460ff16908060070160029054906101000a900460ff1690508a565b5f606061122683612fc2565b91509150915091565b611237612c78565b5f60055f8681526020019081526020015f2090503373ffffffffffffffffffffffffffffffffffffffff16816001015f9054906101000a900473ffffffffffffffffffffffffffffffffffffffff1673ffffffffffffffffffffffffffffffffffffffff16146112dc576040517f08c379a00000000000000000000000000000000000000000000000000000000081526004016112d3906141e6565b60405180910390fd5b5f60038111156112ef576112ee6137c9565b5b816008015f9054906101000a900460ff166003811115611312576113116137c9565b5b14611352576040517f08c379a00000000000000000000000000000000000000000000000000000000081526004016113499061424e565b60405180910390fd5b5f845111801561136457506032845111155b6113a3576040517f08c379a000000000000000000000000000000000000000000000000000000000815260040161139a906146b0565b60405180910390fd5b5f821180156113b457506127108211155b6113f3576040517f08c379a00000000000000000000000000000000000000000000000000000000081526004016113ea90614718565b60405180910390fd5b5f8311611435576040517f08c379a000000000000000000000000000000000000000000000000000000000815260040161142c90614780565b60405180910390fd5b5f81600a015f81548092919061144a9061479e565b9190505590506040518060a001604052808681526020018581526020018481526020015f815260200160011515815250826009015f8381526020019081526020015f205f820151815f0190816114a0919061497c565b506020820151816001015560408201518160020155606082015181600301556080820151816004015f6101000a81548160ff02191690831515021790555090505080867ffceae9793a20041252ea0f32e7f5c2097722232c797eb4cc8394b829eba0c7b387878760016040516115199493929190614a4b565b60405180910390a3505050505050565b5f60025f9054906101000a900460ff16905090565b60605f5f5f5f60055f8881526020019081526020015f20600a0154861061159a576040517f08c379a00000000000000000000000000000000000000000000000000000000081526004016115919061434b565b60405180910390fd5b5f60055f8981526020019081526020015f206009015f8881526020019081526020015f209050805f01816001015482600201548360030154846004015f9054906101000a900460ff168480546115ef9061416c565b80601f016020809104026020016040519081016040528092919081815260200182805461161b9061416c565b80156116665780601f1061163d57610100808354040283529160200191611666565b820191905f5260205f20905b81548152906001019060200180831161164957829003601f168201915b5050505050945095509550955095509550509295509295909350565b5f5f60608060605f5f60605f5f5f60055f8d81526020019081526020015f209050805f0154816001015f9054906101000a900473ffffffffffffffffffffffffffffffffffffffff168260020183600301846004018560050154866006015487600701886008015f9054906101000a900460ff1689600a01548780546117079061416c565b80601f01602080910402602001604051908101604052809291908181526020018280546117339061416c565b801561177e5780601f106117555761010080835404028352916020019161177e565b820191905f5260205f20905b81548152906001019060200180831161176157829003601f168201915b505050505097508680546117919061416c565b80601f01602080910402602001604051908101604052809291908181526020018280546117bd9061416c565b80156118085780601f106117df57610100808354040283529160200191611808565b820191905f5260205f20905b8154815290600101906020018083116117eb57829003601f168201915b5050505050965085805461181b9061416c565b80601f01602080910402602001604051908101604052809291908181526020018280546118479061416c565b80156118925780601f1061186957610100808354040283529160200191611892565b820191905f5260205f20905b81548152906001019060200180831161187557829003601f168201915b505050505095508280546118a59061416c565b80601f01602080910402602001604051908101604052809291908181526020018280546118d19061416c565b801561191c5780601f106118f35761010080835404028352916020019161191c565b820191905f5260205f20905b8154815290600101906020018083116118ff57829003601f168201915b505050505092509a509a509a509a509a509a509a509a509a509a50509193959799509193959799565b5f61194e612c32565b611956612c78565b5f73ffffffffffffffffffffffffffffffffffffffff167f000000000000000000000000000000000000000000000000000000000000000073ffffffffffffffffffffffffffffffffffffffff16636352211e846040518263ffffffff1660e01b81526004016119c691906138f2565b602060405180830381865afa1580156119e1573d5f5f3e3d5ffd5b505050506040513d601f19601f82011682018060405250810190611a059190614aa9565b73ffffffffffffffffffffffffffffffffffffffff1603611a5b576040517f08c379a0000000000000000000000000000000000000000000000000000000008152600401611a5290614b1e565b60405180910390fd5b5f60065f8481526020019081526020015f2090505f60055f836001015481526020019081526020015f209050806001015f9054906101000a900473ffffffffffffffffffffffffffffffffffffffff1673ffffffffffffffffffffffffffffffffffffffff163373ffffffffffffffffffffffffffffffffffffffff1614611b18576040517f08c379a0000000000000000000000000000000000000000000000000000000008152600401611b0f906141e6565b60405180910390fd5b816007015f9054906101000a900460ff1615611b69576040517f08c379a0000000000000000000000000000000000000000000000000000000008152600401611b6090614b86565b60405180910390fd5b8160070160019054906101000a900460ff1615611bbb576040517f08c379a0000000000000000000000000000000000000000000000000000000008152600401611bb290614bee565b60405180910390fd5b60016003811115611bcf57611bce6137c9565b5b816008015f9054906101000a900460ff166003811115611bf257611bf16137c9565b5b14611c32576040517f08c379a0000000000000000000000000000000000000000000000000000000008152600401611c2990614c56565b60405180910390fd5b6001826007015f6101000a81548160ff0219169083151502179055503373ffffffffffffffffffffffffffffffffffffffff168260010154857fb35ebdfb9515b145e406c5c5a0846ec436db0b9560927af3af7a754d90c4f6ff60405160405180910390a4600192505050611ca5612fb9565b919050565b611cb2612b4a565b611cbb5f613309565b565b611cc5612c32565b611ccd612c78565b5f73ffffffffffffffffffffffffffffffffffffffff167f000000000000000000000000000000000000000000000000000000000000000073ffffffffffffffffffffffffffffffffffffffff16636352211e836040518263ffffffff1660e01b8152600401611d3d91906138f2565b602060405180830381865afa158015611d58573d5f5f3e3d5ffd5b505050506040513d601f19601f82011682018060405250810190611d7c9190614aa9565b73ffffffffffffffffffffffffffffffffffffffff1603611dd2576040517f08c379a0000000000000000000000000000000000000000000000000000000008152600401611dc990614b1e565b60405180910390fd5b5f60065f8381526020019081526020015f2090505f60055f836001015481526020019081526020015f209050816003015f9054906101000a900473ffffffffffffffffffffffffffffffffffffffff1673ffffffffffffffffffffffffffffffffffffffff163373ffffffffffffffffffffffffffffffffffffffff161480611ea95750806001015f9054906101000a900473ffffffffffffffffffffffffffffffffffffffff1673ffffffffffffffffffffffffffffffffffffffff163373ffffffffffffffffffffffffffffffffffffffff16145b611ee8576040517f08c379a0000000000000000000000000000000000000000000000000000000008152600401611edf90614cbe565b60405180910390fd5b816007015f9054906101000a900460ff1615611f39576040517f08c379a0000000000000000000000000000000000000000000000000000000008152600401611f3090614b86565b60405180910390fd5b8160070160019054906101000a900460ff1615611f8b576040517f08c379a0000000000000000000000000000000000000000000000000000000008152600401611f8290614d26565b60405180910390fd5b5f6003811115611f9e57611f9d6137c9565b5b816008015f9054906101000a900460ff166003811115611fc157611fc06137c9565b5b14806120005750600380811115611fdb57611fda6137c9565b5b816008015f9054906101000a900460ff166003811115611ffe57611ffd6137c9565b5b145b61203f576040517f08c379a000000000000000000000000000000000000000000000000000000000815260040161203690614d8e565b60405180910390fd5b61204883612cb9565b5050612052612fb9565b50565b6007602052815f5260405f20818154811061206e575f80fd5b905f5260205f20015f91509150505481565b612088612b4a565b6120906133ca565b565b61209a612c78565b5f60055f8881526020019081526020015f2090503373ffffffffffffffffffffffffffffffffffffffff16816001015f9054906101000a900473ffffffffffffffffffffffffffffffffffffffff1673ffffffffffffffffffffffffffffffffffffffff161461213f576040517f08c379a0000000000000000000000000000000000000000000000000000000008152600401612136906141e6565b60405180910390fd5b5f6003811115612152576121516137c9565b5b816008015f9054906101000a900460ff166003811115612175576121746137c9565b5b146121b5576040517f08c379a00000000000000000000000000000000000000000000000000000000081526004016121ac9061424e565b60405180910390fd5b80600a015486106121fb576040517f08c379a00000000000000000000000000000000000000000000000000000000081526004016121f29061434b565b60405180910390fd5b5f855111801561220d57506032855111155b61224c576040517f08c379a0000000000000000000000000000000000000000000000000000000008152600401612243906146b0565b60405180910390fd5b806009015f8781526020019081526020015f20600301548310156122a5576040517f08c379a000000000000000000000000000000000000000000000000000000000815260040161229c90614e1c565b60405180910390fd5b6127108311156122ea576040517f08c379a00000000000000000000000000000000000000000000000000000000081526004016122e190614e84565b60405180910390fd5b5f841161232c576040517f08c379a000000000000000000000000000000000000000000000000000000000815260040161232390614780565b60405180910390fd5b5f816009015f8881526020019081526020015f20905085815f019081612352919061497c565b5084816001018190555083816002018190555082816004015f6101000a81548160ff02191690831515021790555086887ffceae9793a20041252ea0f32e7f5c2097722232c797eb4cc8394b829eba0c7b3888888886040516123b79493929190614a4b565b60405180910390a35050505050505050565b5f5f5f9054906101000a900473ffffffffffffffffffffffffffffffffffffffff16905090565b7f000000000000000000000000000000000000000000000000000000000000000081565b73deafa17d50dba6224177ffa396395a7e096f250e81565b6008602052815f5260405f208181548110612445575f80fd5b905f5260205f20015f91509150505481565b5f612460612c32565b612468612c78565b610e104261247691906143fe565b84116124b7576040517f08c379a00000000000000000000000000000000000000000000000000000000081526004016124ae90614f12565b60405180910390fd5b8383116124f9576040517f08c379a00000000000000000000000000000000000000000000000000000000081526004016124f090614fa0565b60405180910390fd5b5f875111801561250b57506064875111155b61254a576040517f08c379a000000000000000000000000000000000000000000000000000000000815260040161254190615008565b60405180910390fd5b6103e886511115612590576040517f08c379a000000000000000000000000000000000000000000000000000000000815260040161258790615070565b60405180910390fd5b5f85511180156125a2575060c8855111155b6125e1576040517f08c379a00000000000000000000000000000000000000000000000000000000081526004016125d8906150d8565b60405180910390fd5b7f000000000000000000000000000000000000000000000000000000000000000073ffffffffffffffffffffffffffffffffffffffff166323b872dd3373deafa17d50dba6224177ffa396395a7e096f250e670de0b6b3a76400006040518463ffffffff1660e01b815260040161265a939291906144da565b6020604051808303815f875af1158015612676573d5f5f3e3d5ffd5b505050506040513d601f19601f8201168201806040525081019061269a9190614523565b6126d9576040517f08c379a00000000000000000000000000000000000000000000000000000000081526004016126d090615140565b60405180910390fd5b5f60035f8154809291906126ec9061479e565b9190505590505f60055f8381526020019081526020015f20905081815f018190555033816001015f6101000a81548173ffffffffffffffffffffffffffffffffffffffff021916908373ffffffffffffffffffffffffffffffffffffffff16021790555088816002019081612761919061497c565b5087816003019081612773919061497c565b5086816004019081612785919061497c565b50858160050181905550848160060181905550838160070190816127a9919061497c565b505f816008015f6101000a81548160ff021916908360038111156127d0576127cf6137c9565b5b02179055505f81600a01819055503373ffffffffffffffffffffffffffffffffffffffff16827f3e1e16dc53562886fa9ab2acde567c1067c24a0c4daad0e47ab75c7b194a90ed8b89896040516128299392919061515e565b60405180910390a3819250505061283e612fb9565b9695505050505050565b612850612b4a565b5f73ffffffffffffffffffffffffffffffffffffffff168173ffffffffffffffffffffffffffffffffffffffff16036128c0575f6040517f1e4fbdf70000000000000000000000000000000000000000000000000000000081526004016128b79190613e0b565b60405180910390fd5b6128c981613309565b50565b6128d46134d4565b5f73ffffffffffffffffffffffffffffffffffffffff167f000000000000000000000000000000000000000000000000000000000000000073ffffffffffffffffffffffffffffffffffffffff16636352211e846040518263ffffffff1660e01b815260040161294491906138f2565b602060405180830381865afa15801561295f573d5f5f3e3d5ffd5b505050506040513d601f19601f820116820180604052508101906129839190614aa9565b73ffffffffffffffffffffffffffffffffffffffff16036129d9576040517f08c379a00000000000000000000000000000000000000000000000000000000081526004016129d090614b1e565b60405180910390fd5b5f60065f8481526020019081526020015f2090505f60055f836001015481526020019081526020015f2090505f612a2982600501548360060154846008015f9054906101000a900460ff1661342c565b90505f5f612a3687612fc2565b91509150604051806101a00160405280865f015481526020018660010154815260200186600201548152602001866003015f9054906101000a900473ffffffffffffffffffffffffffffffffffffffff1673ffffffffffffffffffffffffffffffffffffffff168152602001866004015481526020018660050154815260200186600601548152602001866007015f9054906101000a900460ff16151581526020018660070160019054906101000a900460ff16151581526020018660070160029054906101000a900460ff166003811115612b1557612b146137c9565b5b8152602001846003811115612b2d57612b2c6137c9565b5b815260200183151581526020018281525095505050505050919050565b612b5261348d565b73ffffffffffffffffffffffffffffffffffffffff16612b706123c9565b73ffffffffffffffffffffffffffffffffffffffff1614612bcf57612b9361348d565b6040517f118cdaa7000000000000000000000000000000000000000000000000000000008152600401612bc69190613e0b565b60405180910390fd5b565b612bd9613494565b5f60025f6101000a81548160ff0219169083151502179055507f5db9ee0a495bf2e6ff9c91a7834c1ba4fdd244a5e8aa4e537bd38aeae4b073aa612c1b61348d565b604051612c289190613e0b565b60405180910390a1565b600260015403612c6e576040517f3ee5aeb500000000000000000000000000000000000000000000000000000000815260040160405180910390fd5b6002600181905550565b612c80611529565b15612cb7576040517fd93c066500000000000000000000000000000000000000000000000000000000815260040160405180910390fd5b565b5f60065f8381526020019081526020015f2090508060070160019054906101000a900460ff1615612d1f576040517f08c379a0000000000000000000000000000000000000000000000000000000008152600401612d1690614d26565b60405180910390fd5b60018160070160016101000a81548160ff0219169083151502179055505f60055f836001015481526020019081526020015f2090505f816009015f846002015481526020019081526020015f2090508260040154816003015f828254612d85919061519a565b925050819055507f000000000000000000000000000000000000000000000000000000000000000073ffffffffffffffffffffffffffffffffffffffff166323b872dd836001015f9054906101000a900473ffffffffffffffffffffffffffffffffffffffff16856003015f9054906101000a900473ffffffffffffffffffffffffffffffffffffffff1686600501546040518463ffffffff1660e01b8152600401612e33939291906144da565b6020604051808303815f875af1158015612e4f573d5f5f3e3d5ffd5b505050506040513d601f19601f82011682018060405250810190612e739190614523565b612eb2576040517f08c379a0000000000000000000000000000000000000000000000000000000008152600401612ea990615217565b60405180910390fd5b7f000000000000000000000000000000000000000000000000000000000000000073ffffffffffffffffffffffffffffffffffffffff166342966c68856040518263ffffffff1660e01b8152600401612f0b91906138f2565b5f604051808303815f87803b158015612f22575f5ffd5b505af1158015612f34573d5f5f3e3d5ffd5b50505050826003015f9054906101000a900473ffffffffffffffffffffffffffffffffffffffff1673ffffffffffffffffffffffffffffffffffffffff168360010154857fc4a278eade19ee5ff400a2c18440a184fceff74394c2abf31f62d18a394697f18660050154604051612fab91906138f2565b60405180910390a450505050565b60018081905550565b5f60605f73ffffffffffffffffffffffffffffffffffffffff167f000000000000000000000000000000000000000000000000000000000000000073ffffffffffffffffffffffffffffffffffffffff16636352211e856040518263ffffffff1660e01b815260040161303591906138f2565b602060405180830381865afa158015613050573d5f5f3e3d5ffd5b505050506040513d601f19601f820116820180604052508101906130749190614aa9565b73ffffffffffffffffffffffffffffffffffffffff16036130cf575f6040518060400160405280601581526020017f5469636b657420646f6573206e6f74206578697374000000000000000000000081525091509150613304565b5f60065f8581526020019081526020015f2090505f60055f836001015481526020019081526020015f209050816007015f9054906101000a900460ff1615613153575f6040518060400160405280601381526020017f5469636b657420616c7265616479207573656400000000000000000000000000815250935093505050613304565b8160070160019054906101000a900460ff16156131ac575f6040518060400160405280600f81526020017f5469636b657420726566756e6465640000000000000000000000000000000000815250935093505050613304565b6003808111156131bf576131be6137c9565b5b816008015f9054906101000a900460ff1660038111156131e2576131e16137c9565b5b03613229575f6040518060400160405280600f81526020017f4576656e742063616e63656c6c65640000000000000000000000000000000000815250935093505050613304565b8060050154421015613277575f6040518060400160405280601181526020017f4576656e74206e6f742073746172746564000000000000000000000000000000815250935093505050613304565b80600601544211156132c5575f6040518060400160405280600b81526020017f4576656e7420656e646564000000000000000000000000000000000000000000815250935093505050613304565b60016040518060400160405280600c81526020017f56616c6964207469636b657400000000000000000000000000000000000000008152509350935050505b915091565b5f5f5f9054906101000a900473ffffffffffffffffffffffffffffffffffffffff169050815f5f6101000a81548173ffffffffffffffffffffffffffffffffffffffff021916908373ffffffffffffffffffffffffffffffffffffffff1602179055508173ffffffffffffffffffffffffffffffffffffffff168173ffffffffffffffffffffffffffffffffffffffff167f8be0079c531659141344cd1fd0a4f28419497f9722a3daafe3b4186f6b6457e060405160405180910390a35050565b6133d2612c78565b600160025f6101000a81548160ff0219169083151502179055507f62e78cea01bee320cd4e420270b5ea74000d11b0c9f74754ebdbfc544b05a25861341561348d565b6040516134229190613e0b565b60405180910390a1565b5f6003808111156134405761343f6137c9565b5b826003811115613453576134526137c9565b5b036134615760039050613486565b83421015613471575f9050613486565b8242116134815760019050613486565b600290505b9392505050565b5f33905090565b61349c611529565b6134d2576040517f8dfc202b00000000000000000000000000000000000000000000000000000000815260040160405180910390fd5b565b604051806101a001604052805f81526020015f81526020015f81526020015f73ffffffffffffffffffffffffffffffffffffffff1681526020015f81526020015f81526020015f81526020015f151581526020015f151581526020015f6003811115613543576135426137c9565b5b81526020015f600381111561355b5761355a6137c9565b5b81526020015f15158152602001606081525090565b5f604051905090565b5f5ffd5b5f5ffd5b5f73ffffffffffffffffffffffffffffffffffffffff82169050919050565b5f6135aa82613581565b9050919050565b6135ba816135a0565b81146135c4575f5ffd5b50565b5f813590506135d5816135b1565b92915050565b5f602082840312156135f0576135ef613579565b5b5f6135fd848285016135c7565b91505092915050565b5f81519050919050565b5f82825260208201905092915050565b5f819050602082019050919050565b5f819050919050565b6136418161362f565b82525050565b5f6136528383613638565b60208301905092915050565b5f602082019050919050565b5f61367482613606565b61367e8185613610565b935061368983613620565b805f5b838110156136b95781516136a08882613647565b97506136ab8361365e565b92505060018101905061368c565b5085935050505092915050565b5f6020820190508181035f8301526136de818461366a565b905092915050565b6136ef8161362f565b81146136f9575f5ffd5b50565b5f8135905061370a816136e6565b92915050565b5f6020828403121561372557613724613579565b5b5f613732848285016136fc565b91505092915050565b6137448161362f565b82525050565b613753816135a0565b82525050565b5f81519050919050565b5f82825260208201905092915050565b8281835e5f83830152505050565b5f601f19601f8301169050919050565b5f61379b82613759565b6137a58185613763565b93506137b5818560208601613773565b6137be81613781565b840191505092915050565b7f4e487b71000000000000000000000000000000000000000000000000000000005f52602160045260245ffd5b60048110613807576138066137c9565b5b50565b5f819050613817826137f6565b919050565b5f6138268261380a565b9050919050565b6138368161381c565b82525050565b5f610140820190506138505f83018d61373b565b61385d602083018c61374a565b818103604083015261386f818b613791565b90508181036060830152613883818a613791565b905081810360808301526138978189613791565b90506138a660a083018861373b565b6138b360c083018761373b565b81810360e08301526138c58186613791565b90506138d561010083018561382d565b6138e361012083018461373b565b9b9a5050505050505050505050565b5f6020820190506139055f83018461373b565b92915050565b5f819050919050565b5f61392e61392961392484613581565b61390b565b613581565b9050919050565b5f61393f82613914565b9050919050565b5f61395082613935565b9050919050565b61396081613946565b82525050565b5f6020820190506139795f830184613957565b92915050565b5f5ffd5b5f5ffd5b7f4e487b71000000000000000000000000000000000000000000000000000000005f52604160045260245ffd5b6139bd82613781565b810181811067ffffffffffffffff821117156139dc576139db613987565b5b80604052505050565b5f6139ee613570565b90506139fa82826139b4565b919050565b5f67ffffffffffffffff821115613a1957613a18613987565b5b613a2282613781565b9050602081019050919050565b828183375f83830152505050565b5f613a4f613a4a846139ff565b6139e5565b905082815260208101848484011115613a6b57613a6a613983565b5b613a76848285613a2f565b509392505050565b5f82601f830112613a9257613a9161397f565b5b8135613aa2848260208601613a3d565b91505092915050565b5f5f5f5f60808587031215613ac357613ac2613579565b5b5f613ad0878288016136fc565b9450506020613ae1878288016136fc565b9350506040613af2878288016136fc565b925050606085013567ffffffffffffffff811115613b1357613b1261357d565b5b613b1f87828801613a7e565b91505092959194509250565b5f8115159050919050565b613b3f81613b2b565b82525050565b5f61014082019050613b595f83018d61373b565b613b66602083018c61373b565b613b73604083018b61373b565b613b80606083018a61374a565b613b8d608083018961373b565b613b9a60a083018861373b565b613ba760c083018761373b565b613bb460e0830186613b36565b613bc2610100830185613b36565b613bd061012083018461382d565b9b9a5050505050505050505050565b5f604082019050613bf25f830185613b36565b8181036020830152613c048184613791565b90509392505050565b5f5f5f5f60808587031215613c2557613c24613579565b5b5f613c32878288016136fc565b945050602085013567ffffffffffffffff811115613c5357613c5261357d565b5b613c5f87828801613a7e565b9350506040613c70878288016136fc565b9250506060613c81878288016136fc565b91505092959194509250565b5f602082019050613ca05f830184613b36565b92915050565b5f5f60408385031215613cbc57613cbb613579565b5b5f613cc9858286016136fc565b9250506020613cda858286016136fc565b9150509250929050565b5f60a0820190508181035f830152613cfc8188613791565b9050613d0b602083018761373b565b613d18604083018661373b565b613d25606083018561373b565b613d326080830184613b36565b9695505050505050565b613d4581613b2b565b8114613d4f575f5ffd5b50565b5f81359050613d6081613d3c565b92915050565b5f5f5f5f5f5f60c08789031215613d8057613d7f613579565b5b5f613d8d89828a016136fc565b9650506020613d9e89828a016136fc565b955050604087013567ffffffffffffffff811115613dbf57613dbe61357d565b5b613dcb89828a01613a7e565b9450506060613ddc89828a016136fc565b9350506080613ded89828a016136fc565b92505060a0613dfe89828a01613d52565b9150509295509295509295565b5f602082019050613e1e5f83018461374a565b92915050565b5f613e2e82613935565b9050919050565b613e3e81613e24565b82525050565b5f602082019050613e575f830184613e35565b92915050565b5f5f60408385031215613e7357613e72613579565b5b5f613e80858286016135c7565b9250506020613e91858286016136fc565b9150509250929050565b5f5f5f5f5f5f60c08789031215613eb557613eb4613579565b5b5f87013567ffffffffffffffff811115613ed257613ed161357d565b5b613ede89828a01613a7e565b965050602087013567ffffffffffffffff811115613eff57613efe61357d565b5b613f0b89828a01613a7e565b955050604087013567ffffffffffffffff811115613f2c57613f2b61357d565b5b613f3889828a01613a7e565b9450506060613f4989828a016136fc565b9350506080613f5a89828a016136fc565b92505060a087013567ffffffffffffffff811115613f7b57613f7a61357d565b5b613f8789828a01613a7e565b9150509295509295509295565b613f9d816135a0565b82525050565b613fac81613b2b565b82525050565b613fbb8161381c565b82525050565b5f82825260208201905092915050565b5f613fdb82613759565b613fe58185613fc1565b9350613ff5818560208601613773565b613ffe81613781565b840191505092915050565b5f6101a083015f83015161401f5f860182613638565b5060208301516140326020860182613638565b5060408301516140456040860182613638565b5060608301516140586060860182613f94565b50608083015161406b6080860182613638565b5060a083015161407e60a0860182613638565b5060c083015161409160c0860182613638565b5060e08301516140a460e0860182613fa3565b506101008301516140b9610100860182613fa3565b506101208301516140ce610120860182613fb2565b506101408301516140e3610140860182613fb2565b506101608301516140f8610160860182613fa3565b506101808301518482036101808601526141128282613fd1565b9150508091505092915050565b5f6020820190508181035f8301526141378184614009565b905092915050565b7f4e487b71000000000000000000000000000000000000000000000000000000005f52602260045260245ffd5b5f600282049050600182168061418357607f821691505b6020821081036141965761419561413f565b5b50919050565b7f4f6e6c79206f7267616e697a65720000000000000000000000000000000000005f82015250565b5f6141d0600e83613763565b91506141db8261419c565b602082019050919050565b5f6020820190508181035f8301526141fd816141c4565b9050919050565b7f4576656e74206e6f74207570636f6d696e6700000000000000000000000000005f82015250565b5f614238601283613763565b915061424382614204565b602082019050919050565b5f6020820190508181035f8301526142658161422c565b9050919050565b7f4e487b71000000000000000000000000000000000000000000000000000000005f52603260045260245ffd5b7f496e76616c696420617474656e64656520636f756e74000000000000000000005f82015250565b5f6142cd601683613763565b91506142d882614299565b602082019050919050565b5f6020820190508181035f8301526142fa816142c1565b9050919050565b7f496e76616c6964207469657220494400000000000000000000000000000000005f82015250565b5f614335600f83613763565b915061434082614301565b602082019050919050565b5f6020820190508181035f83015261436281614329565b9050919050565b7f54696572206e6f742061637469766500000000000000000000000000000000005f82015250565b5f61439d600f83613763565b91506143a882614369565b602082019050919050565b5f6020820190508181035f8301526143ca81614391565b9050919050565b7f4e487b71000000000000000000000000000000000000000000000000000000005f52601160045260245ffd5b5f6144088261362f565b91506144138361362f565b925082820190508082111561442b5761442a6143d1565b5b92915050565b7f4e6f7420656e6f756768207469636b65747300000000000000000000000000005f82015250565b5f614465601283613763565b915061447082614431565b602082019050919050565b5f6020820190508181035f83015261449281614459565b9050919050565b5f6144a38261362f565b91506144ae8361362f565b92508282026144bc8161362f565b915082820484148315176144d3576144d26143d1565b5b5092915050565b5f6060820190506144ed5f83018661374a565b6144fa602083018561374a565b614507604083018461373b565b949350505050565b5f8151905061451d81613d3c565b92915050565b5f6020828403121561453857614537613579565b5b5f6145458482850161450f565b91505092915050565b7f5061796d656e74207472616e73666572206661696c65640000000000000000005f82015250565b5f614582601783613763565b915061458d8261454e565b602082019050919050565b5f6020820190508181035f8301526145af81614576565b9050919050565b5f6040820190506145c95f83018561374a565b81810360208301526145db8184613791565b90509392505050565b5f815190506145f2816136e6565b92915050565b5f6020828403121561460d5761460c613579565b5b5f61461a848285016145e4565b91505092915050565b5f6080820190506146365f83018761374a565b614643602083018661373b565b614650604083018561373b565b61465d606083018461373b565b95945050505050565b7f496e76616c69642074696572206e616d65206c656e67746800000000000000005f82015250565b5f61469a601883613763565b91506146a582614666565b602082019050919050565b5f6020820190508181035f8301526146c78161468e565b9050919050565b7f496e76616c6964206d617820737570706c7900000000000000000000000000005f82015250565b5f614702601283613763565b915061470d826146ce565b602082019050919050565b5f6020820190508181035f83015261472f816146f6565b9050919050565b7f5072696365206d7573742062652067726561746572207468616e2030000000005f82015250565b5f61476a601c83613763565b915061477582614736565b602082019050919050565b5f6020820190508181035f8301526147978161475e565b9050919050565b5f6147a88261362f565b91507fffffffffffffffffffffffffffffffffffffffffffffffffffffffffffffffff82036147da576147d96143d1565b5b600182019050919050565b5f819050815f5260205f209050919050565b5f6020601f8301049050919050565b5f82821b905092915050565b5f600883026148417fffffffffffffffffffffffffffffffffffffffffffffffffffffffffffffffff82614806565b61484b8683614806565b95508019841693508086168417925050509392505050565b5f61487d6148786148738461362f565b61390b565b61362f565b9050919050565b5f819050919050565b61489683614863565b6148aa6148a282614884565b848454614812565b825550505050565b5f5f905090565b6148c16148b2565b6148cc81848461488d565b505050565b5b818110156148ef576148e45f826148b9565b6001810190506148d2565b5050565b601f82111561493457614905816147e5565b61490e846147f7565b8101602085101561491d578190505b614931614929856147f7565b8301826148d1565b50505b505050565b5f82821c905092915050565b5f6149545f1984600802614939565b1980831691505092915050565b5f61496c8383614945565b9150826002028217905092915050565b61498582613759565b67ffffffffffffffff81111561499e5761499d613987565b5b6149a8825461416c565b6149b38282856148f3565b5f60209050601f8311600181146149e4575f84156149d2578287015190505b6149dc8582614961565b865550614a43565b601f1984166149f2866147e5565b5f5b82811015614a19578489015182556001820191506020850194506020810190506149f4565b86831015614a365784890151614a32601f891682614945565b8355505b6001600288020188555050505b505050505050565b5f6080820190508181035f830152614a638187613791565b9050614a72602083018661373b565b614a7f604083018561373b565b614a8c6060830184613b36565b95945050505050565b5f81519050614aa3816135b1565b92915050565b5f60208284031215614abe57614abd613579565b5b5f614acb84828501614a95565b91505092915050565b7f5469636b657420646f6573206e6f7420657869737400000000000000000000005f82015250565b5f614b08601583613763565b9150614b1382614ad4565b602082019050919050565b5f6020820190508181035f830152614b3581614afc565b9050919050565b7f5469636b657420616c72656164792075736564000000000000000000000000005f82015250565b5f614b70601383613763565b9150614b7b82614b3c565b602082019050919050565b5f6020820190508181035f830152614b9d81614b64565b9050919050565b7f5469636b657420726566756e64656400000000000000000000000000000000005f82015250565b5f614bd8600f83613763565b9150614be382614ba4565b602082019050919050565b5f6020820190508181035f830152614c0581614bcc565b9050919050565b7f4576656e74206e6f74206c6976650000000000000000000000000000000000005f82015250565b5f614c40600e83613763565b9150614c4b82614c0c565b602082019050919050565b5f6020820190508181035f830152614c6d81614c34565b9050919050565b7f4e6f7420617574686f72697a65640000000000000000000000000000000000005f82015250565b5f614ca8600e83613763565b9150614cb382614c74565b602082019050919050565b5f6020820190508181035f830152614cd581614c9c565b9050919050565b7f416c726561647920726566756e646564000000000000000000000000000000005f82015250565b5f614d10601083613763565b9150614d1b82614cdc565b602082019050919050565b5f6020820190508181035f830152614d3d81614d04565b9050919050565b7f496e76616c6964206576656e74207374617475730000000000000000000000005f82015250565b5f614d78601483613763565b9150614d8382614d44565b602082019050919050565b5f6020820190508181035f830152614da581614d6c565b9050919050565b7f43616e6e6f74207265647563652062656c6f772063757272656e7420737570705f8201527f6c79000000000000000000000000000000000000000000000000000000000000602082015250565b5f614e06602283613763565b9150614e1182614dac565b604082019050919050565b5f6020820190508181035f830152614e3381614dfa565b9050919050565b7f4d617820737570706c7920746f6f2068696768000000000000000000000000005f82015250565b5f614e6e601383613763565b9150614e7982614e3a565b602082019050919050565b5f6020820190508181035f830152614e9b81614e62565b9050919050565b7f53746172742064617465206d757374206265206174206c65617374203120686f5f8201527f757220696e206675747572650000000000000000000000000000000000000000602082015250565b5f614efc602c83613763565b9150614f0782614ea2565b604082019050919050565b5f6020820190508181035f830152614f2981614ef0565b9050919050565b7f456e642064617465206d757374206265206166746572207374617274206461745f8201527f6500000000000000000000000000000000000000000000000000000000000000602082015250565b5f614f8a602183613763565b9150614f9582614f30565b604082019050919050565b5f6020820190508181035f830152614fb781614f7e565b9050919050565b7f5469746c65206c656e67746820696e76616c69640000000000000000000000005f82015250565b5f614ff2601483613763565b9150614ffd82614fbe565b602082019050919050565b5f6020820190508181035f83015261501f81614fe6565b9050919050565b7f4465736372697074696f6e20746f6f206c6f6e670000000000000000000000005f82015250565b5f61505a601483613763565b915061506582615026565b602082019050919050565b5f6020820190508181035f8301526150878161504e565b9050919050565b7f4c6f636174696f6e206c656e67746820696e76616c69640000000000000000005f82015250565b5f6150c2601783613763565b91506150cd8261508e565b602082019050919050565b5f6020820190508181035f8301526150ef816150b6565b9050919050565b7f466565207472616e73666572206661696c6564000000000000000000000000005f82015250565b5f61512a601383613763565b9150615135826150f6565b602082019050919050565b5f6020820190508181035f8301526151578161511e565b9050919050565b5f6060820190508181035f8301526151768186613791565b9050615185602083018561373b565b615192604083018461373b565b949350505050565b5f6151a48261362f565b91506151af8361362f565b92508282039050818111156151c7576151c66143d1565b5b92915050565b7f526566756e64207472616e73666572206661696c6564000000000000000000005f82015250565b5f615201601683613763565b915061520c826151cd565b602082019050919050565b5f6020820190508181035f83015261522e816151f5565b905091905056fea2646970667358221220e91bc95abaa7c399238ddabc0fdfa195834e0f04d9a98fa84fb20695d7ae2b5164736f6c634300081c0033","linkReferences":{}},"methodIdentifiers":{"LISTING_FEE()":"2b86ae38","PLATFORM_ADDRESS()":"bbc28489","addTicketTier(uint256,string,uint256,uint256)":"54baba83","buyTicket(uint256,uint256,uint256,string)":"50a6aba1","cancelEvent(uint256)":"3f69babd","createEvent(string,string,string,uint256,uint256,string)":"d54f6316","eventTickets(uint256,uint256)":"779cea77","events(uint256)":"0b791430","getEvent(uint256)":"6d1884e0","getTicketInfo(uint256)":"ff99a063","getTicketTier(uint256,uint256)":"6c0f1116","getUserTickets(address)":"0484a22f","owner()":"8da5cb5b","pause()":"8456cb59","paused()":"5c975abb","paymentToken()":"3013ce29","refundTicket(uint256)":"75774100","renounceOwnership()":"715018a6","ticketNFT()":"b393391b","tickets(uint256)":"50b44712","transferOwnership(address)":"f2fde38b","unpause()":"3f4ba83a","updateTicketTier(uint256,uint256,string,uint256,uint256,bool)":"852c3373","userTickets(address,uint256)":"cf260baf","verifyAndUseTicket(uint256)":"6d5e365e","verifyTicket(uint256)":"543cb81f"},"id":47}